{
  "_format": "hh-sol-artifact-1",
  "contractName": "Lottery",
  "sourceName": "contracts/Lottery.sol",
  "abi": [
    {
      "inputs": [
        {
          "internalType": "uint256",
          "name": "_entryFee",
          "type": "uint256"
        },
        {
          "internalType": "address",
          "name": "vrfCoordinator",
          "type": "address"
        },
        {
          "internalType": "bytes32",
          "name": "gasLane",
          "type": "bytes32"
        },
        {
          "internalType": "uint64",
          "name": "subscriptionId",
          "type": "uint64"
        },
        {
          "internalType": "uint32",
          "name": "callbackGasLimit",
          "type": "uint32"
        },
        {
          "internalType": "uint256",
          "name": "setInterval",
          "type": "uint256"
        }
      ],
      "stateMutability": "nonpayable",
      "type": "constructor"
    },
    {
      "inputs": [],
      "name": "LowAmount",
      "type": "error"
    },
    {
      "inputs": [
        {
          "internalType": "address",
          "name": "have",
          "type": "address"
        },
        {
          "internalType": "address",
          "name": "want",
          "type": "address"
        }
      ],
      "name": "OnlyCoordinatorCanFulfill",
      "type": "error"
    },
    {
      "inputs": [
        {
          "internalType": "uint256",
          "name": "currentbalance",
          "type": "uint256"
        },
        {
          "internalType": "uint256",
          "name": "players",
          "type": "uint256"
        },
        {
          "internalType": "uint256",
          "name": "lotteryState",
          "type": "uint256"
        }
      ],
      "name": "lotteryUpkeepNotNeeded",
      "type": "error"
    },
    {
      "inputs": [],
      "name": "tranferFailed",
      "type": "error"
    },
    {
      "anonymous": false,
      "inputs": [
        {
          "indexed": false,
          "internalType": "address",
          "name": "",
          "type": "address"
        }
      ],
      "name": "WinnerPicked",
      "type": "event"
    },
    {
      "anonymous": false,
      "inputs": [
        {
          "indexed": true,
          "internalType": "address",
          "name": "",
          "type": "address"
        }
      ],
      "name": "participantEntered",
      "type": "event"
    },
    {
      "anonymous": false,
      "inputs": [
        {
          "indexed": true,
          "internalType": "uint256",
          "name": "requestId",
          "type": "uint256"
        }
      ],
      "name": "requestLotteryWinner",
      "type": "event"
    },
    {
      "inputs": [
        {
          "internalType": "bytes",
          "name": "",
          "type": "bytes"
        }
      ],
      "name": "checkUpkeep",
      "outputs": [
        {
          "internalType": "bool",
          "name": "upKeepNeeded",
          "type": "bool"
        },
        {
          "internalType": "bytes",
          "name": "",
          "type": "bytes"
        }
      ],
      "stateMutability": "view",
      "type": "function"
    },
    {
      "inputs": [],
      "name": "getCurrentInterval",
      "outputs": [
        {
          "internalType": "uint256",
          "name": "",
          "type": "uint256"
        }
      ],
      "stateMutability": "view",
      "type": "function"
    },
    {
      "inputs": [],
      "name": "getEntered",
      "outputs": [],
      "stateMutability": "payable",
      "type": "function"
    },
    {
      "inputs": [],
      "name": "getEntryFee",
      "outputs": [
        {
          "internalType": "uint256",
          "name": "",
          "type": "uint256"
        }
      ],
      "stateMutability": "view",
      "type": "function"
    },
    {
      "inputs": [],
      "name": "getLotteryState",
      "outputs": [
        {
          "internalType": "enum Lottery.LotteryState",
          "name": "",
          "type": "uint8"
        }
      ],
      "stateMutability": "view",
      "type": "function"
    },
    {
      "inputs": [],
      "name": "getNumWords",
      "outputs": [
        {
          "internalType": "uint256",
          "name": "",
          "type": "uint256"
        }
      ],
      "stateMutability": "view",
      "type": "function"
    },
    {
      "inputs": [],
      "name": "getNumberOfPlayer",
      "outputs": [
        {
          "internalType": "uint256",
          "name": "",
          "type": "uint256"
        }
      ],
      "stateMutability": "view",
      "type": "function"
    },
    {
      "inputs": [
        {
          "internalType": "uint256",
          "name": "index",
          "type": "uint256"
        }
      ],
      "name": "getPlayer",
      "outputs": [
        {
          "internalType": "address",
          "name": "",
          "type": "address"
        }
      ],
      "stateMutability": "view",
      "type": "function"
    },
    {
      "inputs": [],
      "name": "getRecentWinner",
      "outputs": [
        {
          "internalType": "address",
          "name": "",
          "type": "address"
        }
      ],
      "stateMutability": "view",
      "type": "function"
    },
    {
      "inputs": [],
      "name": "getRequestConfirmation",
      "outputs": [
        {
          "internalType": "uint256",
          "name": "",
          "type": "uint256"
        }
      ],
      "stateMutability": "view",
      "type": "function"
    },
    {
      "inputs": [
        {
          "internalType": "bytes",
          "name": "",
          "type": "bytes"
        }
      ],
      "name": "performUpkeep",
      "outputs": [],
      "stateMutability": "nonpayable",
      "type": "function"
    },
    {
      "inputs": [
        {
          "internalType": "uint256",
          "name": "requestId",
          "type": "uint256"
        },
        {
          "internalType": "uint256[]",
          "name": "randomWords",
          "type": "uint256[]"
        }
      ],
      "name": "rawFulfillRandomWords",
      "outputs": [],
      "stateMutability": "nonpayable",
      "type": "function"
    },
    {
      "inputs": [],
      "name": "s_recentWinner",
      "outputs": [
        {
          "internalType": "address payable",
          "name": "",
          "type": "address"
        }
      ],
      "stateMutability": "view",
      "type": "function"
    }
  ],
  "bytecode": "0x61014060405260036000806101000a81548161ffff021916908361ffff1602179055506001600060026101000a81548163ffffffff021916908363ffffffff1602179055503480156200005157600080fd5b50604051620017c5380380620017c58339818101604052810190620000779190620002df565b848073ffffffffffffffffffffffffffffffffffffffff1660808173ffffffffffffffffffffffffffffffffffffffff1681525050508560a081815250508473ffffffffffffffffffffffffffffffffffffffff166101208173ffffffffffffffffffffffffffffffffffffffff16815250508360c081815250508163ffffffff166101008163ffffffff16815250508267ffffffffffffffff1660e08167ffffffffffffffff168152505080600481905550600060028111156200014157620001406200037b565b5b600560006101000a81548160ff021916908360028111156200016857620001676200037b565b5b0217905550505050505050620003aa565b600080fd5b6000819050919050565b62000193816200017e565b81146200019f57600080fd5b50565b600081519050620001b38162000188565b92915050565b600073ffffffffffffffffffffffffffffffffffffffff82169050919050565b6000620001e682620001b9565b9050919050565b620001f881620001d9565b81146200020457600080fd5b50565b6000815190506200021881620001ed565b92915050565b6000819050919050565b62000233816200021e565b81146200023f57600080fd5b50565b600081519050620002538162000228565b92915050565b600067ffffffffffffffff82169050919050565b620002788162000259565b81146200028457600080fd5b50565b60008151905062000298816200026d565b92915050565b600063ffffffff82169050919050565b620002b9816200029e565b8114620002c557600080fd5b50565b600081519050620002d981620002ae565b92915050565b60008060008060008060c08789031215620002ff57620002fe62000179565b5b60006200030f89828a01620001a2565b96505060206200032289828a0162000207565b95505060406200033589828a0162000242565b94505060606200034889828a0162000287565b93505060806200035b89828a01620002c8565b92505060a06200036e89828a01620001a2565b9150509295509295509295565b7f4e487b7100000000000000000000000000000000000000000000000000000000600052602160045260246000fd5b60805160a05160c05160e05161010051610120516113bd62000408600039600061044d015260006104da015260006104aa0152600061048901526000818161072c01526107520152600081816102f8015261034c01526113bd6000f3fe6080604052600436106100c25760003560e01c80636e04ff0d1161007f578063ca6a9ef811610059578063ca6a9ef814610259578063e55ae4e814610284578063e586a4f0146102c1578063ee38adaf146102ec576100c2565b80636e04ff0d146101c55780638638b0c614610203578063bd4d025c1461022e576100c2565b80631fe543e3146100c757806344e43c98146100f05780634585e33b1461011b578063473f1ddc1461014457806353a2c19a1461016f5780636b68c03c1461019a575b600080fd5b3480156100d357600080fd5b506100ee60048036038101906100e99190610cc3565b6102f6565b005b3480156100fc57600080fd5b506101056103b6565b6040516101129190610d2e565b60405180910390f35b34801561012757600080fd5b50610142600480360381019061013d9190610dfe565b6103c0565b005b34801561015057600080fd5b506101596105a3565b6040516101669190610e88565b60405180910390f35b34801561017b57600080fd5b506101846105cd565b6040516101919190610d2e565b60405180910390f35b3480156101a657600080fd5b506101af6105ec565b6040516101bc9190610f1a565b60405180910390f35b3480156101d157600080fd5b506101ec60048036038101906101e79190610dfe565b610603565b6040516101fa929190610fcf565b60405180910390f35b34801561020f57600080fd5b50610218610692565b6040516102259190611020565b60405180910390f35b34801561023a57600080fd5b506102436106b8565b6040516102509190610d2e565b60405180910390f35b34801561026557600080fd5b5061026e6106c5565b60405161027b9190610d2e565b60405180910390f35b34801561029057600080fd5b506102ab60048036038101906102a6919061103b565b6106e0565b6040516102b89190610e88565b60405180910390f35b3480156102cd57600080fd5b506102d6610728565b6040516102e39190610d2e565b60405180910390f35b6102f4610750565b005b7f000000000000000000000000000000000000000000000000000000000000000073ffffffffffffffffffffffffffffffffffffffff163373ffffffffffffffffffffffffffffffffffffffff16146103a857337f00000000000000000000000000000000000000000000000000000000000000006040517f1cf993f400000000000000000000000000000000000000000000000000000000815260040161039f929190611068565b60405180910390fd5b6103b28282610852565b5050565b6000600454905090565b60006103da60405180602001604052806000815250610603565b509050806104495747600180549050600560009054906101000a900460ff16600281111561040b5761040a610ea3565b5b6040517f8faa7ebb00000000000000000000000000000000000000000000000000000000815260040161044093929190611091565b60405180910390fd5b60007f000000000000000000000000000000000000000000000000000000000000000073ffffffffffffffffffffffffffffffffffffffff16635d3b1d307f00000000000000000000000000000000000000000000000000000000000000007f000000000000000000000000000000000000000000000000000000000000000060008054906101000a900461ffff167f0000000000000000000000000000000000000000000000000000000000000000600060029054906101000a900463ffffffff166040518663ffffffff1660e01b815260040161052c959493929190611140565b6020604051808303816000875af115801561054b573d6000803e3d6000fd5b505050506040513d601f19601f8201168201806040525081019061056f91906111a8565b9050807fed81d7c6d243af55a11a80e2e1ff815881e816981f9a54d57713923bfd60966460405160405180910390a2505050565b6000600360009054906101000a900473ffffffffffffffffffffffffffffffffffffffff16905090565b60008060029054906101000a900463ffffffff1663ffffffff16905090565b6000600560009054906101000a900460ff16905090565b600060606000600560009054906101000a900460ff16600281111561062b5761062a610ea3565b5b6000600281111561063f5761063e610ea3565b5b1490506000600454600254426106559190611204565b119050600080600180549050119050600080471190508380156106755750825b801561067e5750805b80156106875750815b955050505050915091565b600360009054906101000a900473ffffffffffffffffffffffffffffffffffffffff1681565b6000600180549050905090565b60008060009054906101000a900461ffff1661ffff16905090565b6000600182815481106106f6576106f5611238565b5b9060005260206000200160009054906101000a900473ffffffffffffffffffffffffffffffffffffffff169050919050565b60007f0000000000000000000000000000000000000000000000000000000000000000905090565b7f00000000000000000000000000000000000000000000000000000000000000003410156107aa576040517f4e8ed22600000000000000000000000000000000000000000000000000000000815260040160405180910390fd5b6001339080600181540180825580915050600190039060005260206000200160009091909190916101000a81548173ffffffffffffffffffffffffffffffffffffffff021916908373ffffffffffffffffffffffffffffffffffffffff1602179055503373ffffffffffffffffffffffffffffffffffffffff167f8d2254bbacae52dfc22329894f8ea57bc566f2efc4f77401f2ee951982387d3560405160405180910390a2565b60006001805490508260008151811061086e5761086d611238565b5b60200260200101516108809190611296565b905060006001828154811061089857610897611238565b5b9060005260206000200160009054906101000a900473ffffffffffffffffffffffffffffffffffffffff16905080600360006101000a81548173ffffffffffffffffffffffffffffffffffffffff021916908373ffffffffffffffffffffffffffffffffffffffff1602179055506000600560006101000a81548160ff0219169083600281111561092c5761092b610ea3565b5b0217905550600067ffffffffffffffff81111561094c5761094b610b80565b5b60405190808252806020026020018201604052801561097a5781602001602082028036833780820191505090505b5060019080519060200190610990929190610a79565b504260048190555060008173ffffffffffffffffffffffffffffffffffffffff16476040516109be906112f8565b60006040518083038185875af1925050503d80600081146109fb576040519150601f19603f3d011682016040523d82523d6000602084013e610a00565b606091505b5050905080610a3b576040517fc902a01500000000000000000000000000000000000000000000000000000000815260040160405180910390fd5b7f5b690ec4a06fe979403046eaeea5b3ce38524683c3001f662c8b5a829632f7df82604051610a6a919061136c565b60405180910390a15050505050565b828054828255906000526020600020908101928215610af2579160200282015b82811115610af15782518260006101000a81548173ffffffffffffffffffffffffffffffffffffffff021916908373ffffffffffffffffffffffffffffffffffffffff16021790555091602001919060010190610a99565b5b509050610aff9190610b03565b5090565b5b80821115610b1c576000816000905550600101610b04565b5090565b6000604051905090565b600080fd5b600080fd5b6000819050919050565b610b4781610b34565b8114610b5257600080fd5b50565b600081359050610b6481610b3e565b92915050565b600080fd5b6000601f19601f8301169050919050565b7f4e487b7100000000000000000000000000000000000000000000000000000000600052604160045260246000fd5b610bb882610b6f565b810181811067ffffffffffffffff82111715610bd757610bd6610b80565b5b80604052505050565b6000610bea610b20565b9050610bf68282610baf565b919050565b600067ffffffffffffffff821115610c1657610c15610b80565b5b602082029050602081019050919050565b600080fd5b6000610c3f610c3a84610bfb565b610be0565b90508083825260208201905060208402830185811115610c6257610c61610c27565b5b835b81811015610c8b5780610c778882610b55565b845260208401935050602081019050610c64565b5050509392505050565b600082601f830112610caa57610ca9610b6a565b5b8135610cba848260208601610c2c565b91505092915050565b60008060408385031215610cda57610cd9610b2a565b5b6000610ce885828601610b55565b925050602083013567ffffffffffffffff811115610d0957610d08610b2f565b5b610d1585828601610c95565b9150509250929050565b610d2881610b34565b82525050565b6000602082019050610d436000830184610d1f565b92915050565b600080fd5b600067ffffffffffffffff821115610d6957610d68610b80565b5b610d7282610b6f565b9050602081019050919050565b82818337600083830152505050565b6000610da1610d9c84610d4e565b610be0565b905082815260208101848484011115610dbd57610dbc610d49565b5b610dc8848285610d7f565b509392505050565b600082601f830112610de557610de4610b6a565b5b8135610df5848260208601610d8e565b91505092915050565b600060208284031215610e1457610e13610b2a565b5b600082013567ffffffffffffffff811115610e3257610e31610b2f565b5b610e3e84828501610dd0565b91505092915050565b600073ffffffffffffffffffffffffffffffffffffffff82169050919050565b6000610e7282610e47565b9050919050565b610e8281610e67565b82525050565b6000602082019050610e9d6000830184610e79565b92915050565b7f4e487b7100000000000000000000000000000000000000000000000000000000600052602160045260246000fd5b60038110610ee357610ee2610ea3565b5b50565b6000819050610ef482610ed2565b919050565b6000610f0482610ee6565b9050919050565b610f1481610ef9565b82525050565b6000602082019050610f2f6000830184610f0b565b92915050565b60008115159050919050565b610f4a81610f35565b82525050565b600081519050919050565b600082825260208201905092915050565b60005b83811015610f8a578082015181840152602081019050610f6f565b60008484015250505050565b6000610fa182610f50565b610fab8185610f5b565b9350610fbb818560208601610f6c565b610fc481610b6f565b840191505092915050565b6000604082019050610fe46000830185610f41565b8181036020830152610ff68184610f96565b90509392505050565b600061100a82610e47565b9050919050565b61101a81610fff565b82525050565b60006020820190506110356000830184611011565b92915050565b60006020828403121561105157611050610b2a565b5b600061105f84828501610b55565b91505092915050565b600060408201905061107d6000830185610e79565b61108a6020830184610e79565b9392505050565b60006060820190506110a66000830186610d1f565b6110b36020830185610d1f565b6110c06040830184610d1f565b949350505050565b6000819050919050565b6110db816110c8565b82525050565b600067ffffffffffffffff82169050919050565b6110fe816110e1565b82525050565b600061ffff82169050919050565b61111b81611104565b82525050565b600063ffffffff82169050919050565b61113a81611121565b82525050565b600060a08201905061115560008301886110d2565b61116260208301876110f5565b61116f6040830186611112565b61117c6060830185611131565b6111896080830184611131565b9695505050505050565b6000815190506111a281610b3e565b92915050565b6000602082840312156111be576111bd610b2a565b5b60006111cc84828501611193565b91505092915050565b7f4e487b7100000000000000000000000000000000000000000000000000000000600052601160045260246000fd5b600061120f82610b34565b915061121a83610b34565b9250828203905081811115611232576112316111d5565b5b92915050565b7f4e487b7100000000000000000000000000000000000000000000000000000000600052603260045260246000fd5b7f4e487b7100000000000000000000000000000000000000000000000000000000600052601260045260246000fd5b60006112a182610b34565b91506112ac83610b34565b9250826112bc576112bb611267565b5b828206905092915050565b600081905092915050565b50565b60006112e26000836112c7565b91506112ed826112d2565b600082019050919050565b6000611303826112d5565b9150819050919050565b6000819050919050565b600061133261132d61132884610e47565b61130d565b610e47565b9050919050565b600061134482611317565b9050919050565b600061135682611339565b9050919050565b6113668161134b565b82525050565b6000602082019050611381600083018461135d565b9291505056fea264697066735822122014ea33ff27ab2ee1f742c7cd2ef91b75b52d8220d8e3aaba982262e0c9ec3e7964736f6c63430008120033",
  "linkReferences": {},
  "deployedLinkReferences": {}
}