{"contracts/Lottery.sol":{"Lottery":{"abi":[{"inputs":[{"internalType":"uint256","name":"_entryFee","type":"uint256"},{"internalType":"address","name":"vrfCoordinator","type":"address"},{"internalType":"bytes32","name":"gasLane","type":"bytes32"},{"internalType":"uint64","name":"subscriptionId","type":"uint64"},{"internalType":"uint32","name":"callbackGasLimit","type":"uint32"},{"internalType":"uint256","name":"setInterval","type":"uint256"}],"stateMutability":"nonpayable","type":"constructor"},{"inputs":[],"name":"LowAmount","type":"error"},{"inputs":[{"internalType":"address","name":"have","type":"address"},{"internalType":"address","name":"want","type":"address"}],"name":"OnlyCoordinatorCanFulfill","type":"error"},{"inputs":[{"internalType":"uint256","name":"currentbalance","type":"uint256"},{"internalType":"uint256","name":"players","type":"uint256"},{"internalType":"uint256","name":"lotteryState","type":"uint256"}],"name":"lotteryUpkeepNotNeeded","type":"error"},{"inputs":[],"name":"tranferFailed","type":"error"},{"anonymous":false,"inputs":[{"indexed":false,"internalType":"address","name":"","type":"address"}],"name":"WinnerPicked","type":"event"},{"anonymous":false,"inputs":[{"indexed":true,"internalType":"address","name":"","type":"address"}],"name":"participantEntered","type":"event"},{"anonymous":false,"inputs":[{"indexed":true,"internalType":"uint256","name":"requestId","type":"uint256"}],"name":"requestLotteryWinner","type":"event"},{"inputs":[{"internalType":"bytes","name":"","type":"bytes"}],"name":"checkUpkeep","outputs":[{"internalType":"bool","name":"upKeepNeeded","type":"bool"},{"internalType":"bytes","name":"","type":"bytes"}],"stateMutability":"view","type":"function"},{"inputs":[],"name":"getCurrentInterval","outputs":[{"internalType":"uint256","name":"","type":"uint256"}],"stateMutability":"view","type":"function"},{"inputs":[],"name":"getEntered","outputs":[],"stateMutability":"payable","type":"function"},{"inputs":[],"name":"getEntryFee","outputs":[{"internalType":"uint256","name":"","type":"uint256"}],"stateMutability":"view","type":"function"},{"inputs":[],"name":"getLotteryState","outputs":[{"internalType":"enum Lottery.LotteryState","name":"","type":"uint8"}],"stateMutability":"view","type":"function"},{"inputs":[],"name":"getNumWords","outputs":[{"internalType":"uint256","name":"","type":"uint256"}],"stateMutability":"view","type":"function"},{"inputs":[],"name":"getNumberOfPlayer","outputs":[{"internalType":"uint256","name":"","type":"uint256"}],"stateMutability":"view","type":"function"},{"inputs":[{"internalType":"uint256","name":"index","type":"uint256"}],"name":"getPlayer","outputs":[{"internalType":"address","name":"","type":"address"}],"stateMutability":"view","type":"function"},{"inputs":[],"name":"getRecentWinner","outputs":[{"internalType":"address","name":"","type":"address"}],"stateMutability":"view","type":"function"},{"inputs":[],"name":"getRequestConfirmation","outputs":[{"internalType":"uint256","name":"","type":"uint256"}],"stateMutability":"view","type":"function"},{"inputs":[{"internalType":"bytes","name":"","type":"bytes"}],"name":"performUpkeep","outputs":[],"stateMutability":"nonpayable","type":"function"},{"inputs":[{"internalType":"uint256","name":"requestId","type":"uint256"},{"internalType":"uint256[]","name":"randomWords","type":"uint256[]"}],"name":"rawFulfillRandomWords","outputs":[],"stateMutability":"nonpayable","type":"function"},{"inputs":[],"name":"s_recentWinner","outputs":[{"internalType":"address payable","name":"","type":"address"}],"stateMutability":"view","type":"function"}],"devdoc":{"kind":"dev","methods":{},"version":1},"evm":{"bytecode":{"linkReferences":{},"object":"61014060405260036000806101000a81548161ffff021916908361ffff1602179055506001600060026101000a81548163ffffffff021916908363ffffffff1602179055503480156200005157600080fd5b50604051620017c5380380620017c58339818101604052810190620000779190620002df565b848073ffffffffffffffffffffffffffffffffffffffff1660808173ffffffffffffffffffffffffffffffffffffffff1681525050508560a081815250508473ffffffffffffffffffffffffffffffffffffffff166101208173ffffffffffffffffffffffffffffffffffffffff16815250508360c081815250508163ffffffff166101008163ffffffff16815250508267ffffffffffffffff1660e08167ffffffffffffffff168152505080600481905550600060028111156200014157620001406200037b565b5b600560006101000a81548160ff021916908360028111156200016857620001676200037b565b5b0217905550505050505050620003aa565b600080fd5b6000819050919050565b62000193816200017e565b81146200019f57600080fd5b50565b600081519050620001b38162000188565b92915050565b600073ffffffffffffffffffffffffffffffffffffffff82169050919050565b6000620001e682620001b9565b9050919050565b620001f881620001d9565b81146200020457600080fd5b50565b6000815190506200021881620001ed565b92915050565b6000819050919050565b62000233816200021e565b81146200023f57600080fd5b50565b600081519050620002538162000228565b92915050565b600067ffffffffffffffff82169050919050565b620002788162000259565b81146200028457600080fd5b50565b60008151905062000298816200026d565b92915050565b600063ffffffff82169050919050565b620002b9816200029e565b8114620002c557600080fd5b50565b600081519050620002d981620002ae565b92915050565b60008060008060008060c08789031215620002ff57620002fe62000179565b5b60006200030f89828a01620001a2565b96505060206200032289828a0162000207565b95505060406200033589828a0162000242565b94505060606200034889828a0162000287565b93505060806200035b89828a01620002c8565b92505060a06200036e89828a01620001a2565b9150509295509295509295565b7f4e487b7100000000000000000000000000000000000000000000000000000000600052602160045260246000fd5b60805160a05160c05160e05161010051610120516113bd62000408600039600061044d015260006104da015260006104aa0152600061048901526000818161072c01526107520152600081816102f8015261034c01526113bd6000f3fe6080604052600436106100c25760003560e01c80636e04ff0d1161007f578063ca6a9ef811610059578063ca6a9ef814610259578063e55ae4e814610284578063e586a4f0146102c1578063ee38adaf146102ec576100c2565b80636e04ff0d146101c55780638638b0c614610203578063bd4d025c1461022e576100c2565b80631fe543e3146100c757806344e43c98146100f05780634585e33b1461011b578063473f1ddc1461014457806353a2c19a1461016f5780636b68c03c1461019a575b600080fd5b3480156100d357600080fd5b506100ee60048036038101906100e99190610cc3565b6102f6565b005b3480156100fc57600080fd5b506101056103b6565b6040516101129190610d2e565b60405180910390f35b34801561012757600080fd5b50610142600480360381019061013d9190610dfe565b6103c0565b005b34801561015057600080fd5b506101596105a3565b6040516101669190610e88565b60405180910390f35b34801561017b57600080fd5b506101846105cd565b6040516101919190610d2e565b60405180910390f35b3480156101a657600080fd5b506101af6105ec565b6040516101bc9190610f1a565b60405180910390f35b3480156101d157600080fd5b506101ec60048036038101906101e79190610dfe565b610603565b6040516101fa929190610fcf565b60405180910390f35b34801561020f57600080fd5b50610218610692565b6040516102259190611020565b60405180910390f35b34801561023a57600080fd5b506102436106b8565b6040516102509190610d2e565b60405180910390f35b34801561026557600080fd5b5061026e6106c5565b60405161027b9190610d2e565b60405180910390f35b34801561029057600080fd5b506102ab60048036038101906102a6919061103b565b6106e0565b6040516102b89190610e88565b60405180910390f35b3480156102cd57600080fd5b506102d6610728565b6040516102e39190610d2e565b60405180910390f35b6102f4610750565b005b7f000000000000000000000000000000000000000000000000000000000000000073ffffffffffffffffffffffffffffffffffffffff163373ffffffffffffffffffffffffffffffffffffffff16146103a857337f00000000000000000000000000000000000000000000000000000000000000006040517f1cf993f400000000000000000000000000000000000000000000000000000000815260040161039f929190611068565b60405180910390fd5b6103b28282610852565b5050565b6000600454905090565b60006103da60405180602001604052806000815250610603565b509050806104495747600180549050600560009054906101000a900460ff16600281111561040b5761040a610ea3565b5b6040517f8faa7ebb00000000000000000000000000000000000000000000000000000000815260040161044093929190611091565b60405180910390fd5b60007f000000000000000000000000000000000000000000000000000000000000000073ffffffffffffffffffffffffffffffffffffffff16635d3b1d307f00000000000000000000000000000000000000000000000000000000000000007f000000000000000000000000000000000000000000000000000000000000000060008054906101000a900461ffff167f0000000000000000000000000000000000000000000000000000000000000000600060029054906101000a900463ffffffff166040518663ffffffff1660e01b815260040161052c959493929190611140565b6020604051808303816000875af115801561054b573d6000803e3d6000fd5b505050506040513d601f19601f8201168201806040525081019061056f91906111a8565b9050807fed81d7c6d243af55a11a80e2e1ff815881e816981f9a54d57713923bfd60966460405160405180910390a2505050565b6000600360009054906101000a900473ffffffffffffffffffffffffffffffffffffffff16905090565b60008060029054906101000a900463ffffffff1663ffffffff16905090565b6000600560009054906101000a900460ff16905090565b600060606000600560009054906101000a900460ff16600281111561062b5761062a610ea3565b5b6000600281111561063f5761063e610ea3565b5b1490506000600454600254426106559190611204565b119050600080600180549050119050600080471190508380156106755750825b801561067e5750805b80156106875750815b955050505050915091565b600360009054906101000a900473ffffffffffffffffffffffffffffffffffffffff1681565b6000600180549050905090565b60008060009054906101000a900461ffff1661ffff16905090565b6000600182815481106106f6576106f5611238565b5b9060005260206000200160009054906101000a900473ffffffffffffffffffffffffffffffffffffffff169050919050565b60007f0000000000000000000000000000000000000000000000000000000000000000905090565b7f00000000000000000000000000000000000000000000000000000000000000003410156107aa576040517f4e8ed22600000000000000000000000000000000000000000000000000000000815260040160405180910390fd5b6001339080600181540180825580915050600190039060005260206000200160009091909190916101000a81548173ffffffffffffffffffffffffffffffffffffffff021916908373ffffffffffffffffffffffffffffffffffffffff1602179055503373ffffffffffffffffffffffffffffffffffffffff167f8d2254bbacae52dfc22329894f8ea57bc566f2efc4f77401f2ee951982387d3560405160405180910390a2565b60006001805490508260008151811061086e5761086d611238565b5b60200260200101516108809190611296565b905060006001828154811061089857610897611238565b5b9060005260206000200160009054906101000a900473ffffffffffffffffffffffffffffffffffffffff16905080600360006101000a81548173ffffffffffffffffffffffffffffffffffffffff021916908373ffffffffffffffffffffffffffffffffffffffff1602179055506000600560006101000a81548160ff0219169083600281111561092c5761092b610ea3565b5b0217905550600067ffffffffffffffff81111561094c5761094b610b80565b5b60405190808252806020026020018201604052801561097a5781602001602082028036833780820191505090505b5060019080519060200190610990929190610a79565b504260048190555060008173ffffffffffffffffffffffffffffffffffffffff16476040516109be906112f8565b60006040518083038185875af1925050503d80600081146109fb576040519150601f19603f3d011682016040523d82523d6000602084013e610a00565b606091505b5050905080610a3b576040517fc902a01500000000000000000000000000000000000000000000000000000000815260040160405180910390fd5b7f5b690ec4a06fe979403046eaeea5b3ce38524683c3001f662c8b5a829632f7df82604051610a6a919061136c565b60405180910390a15050505050565b828054828255906000526020600020908101928215610af2579160200282015b82811115610af15782518260006101000a81548173ffffffffffffffffffffffffffffffffffffffff021916908373ffffffffffffffffffffffffffffffffffffffff16021790555091602001919060010190610a99565b5b509050610aff9190610b03565b5090565b5b80821115610b1c576000816000905550600101610b04565b5090565b6000604051905090565b600080fd5b600080fd5b6000819050919050565b610b4781610b34565b8114610b5257600080fd5b50565b600081359050610b6481610b3e565b92915050565b600080fd5b6000601f19601f8301169050919050565b7f4e487b7100000000000000000000000000000000000000000000000000000000600052604160045260246000fd5b610bb882610b6f565b810181811067ffffffffffffffff82111715610bd757610bd6610b80565b5b80604052505050565b6000610bea610b20565b9050610bf68282610baf565b919050565b600067ffffffffffffffff821115610c1657610c15610b80565b5b602082029050602081019050919050565b600080fd5b6000610c3f610c3a84610bfb565b610be0565b90508083825260208201905060208402830185811115610c6257610c61610c27565b5b835b81811015610c8b5780610c778882610b55565b845260208401935050602081019050610c64565b5050509392505050565b600082601f830112610caa57610ca9610b6a565b5b8135610cba848260208601610c2c565b91505092915050565b60008060408385031215610cda57610cd9610b2a565b5b6000610ce885828601610b55565b925050602083013567ffffffffffffffff811115610d0957610d08610b2f565b5b610d1585828601610c95565b9150509250929050565b610d2881610b34565b82525050565b6000602082019050610d436000830184610d1f565b92915050565b600080fd5b600067ffffffffffffffff821115610d6957610d68610b80565b5b610d7282610b6f565b9050602081019050919050565b82818337600083830152505050565b6000610da1610d9c84610d4e565b610be0565b905082815260208101848484011115610dbd57610dbc610d49565b5b610dc8848285610d7f565b509392505050565b600082601f830112610de557610de4610b6a565b5b8135610df5848260208601610d8e565b91505092915050565b600060208284031215610e1457610e13610b2a565b5b600082013567ffffffffffffffff811115610e3257610e31610b2f565b5b610e3e84828501610dd0565b91505092915050565b600073ffffffffffffffffffffffffffffffffffffffff82169050919050565b6000610e7282610e47565b9050919050565b610e8281610e67565b82525050565b6000602082019050610e9d6000830184610e79565b92915050565b7f4e487b7100000000000000000000000000000000000000000000000000000000600052602160045260246000fd5b60038110610ee357610ee2610ea3565b5b50565b6000819050610ef482610ed2565b919050565b6000610f0482610ee6565b9050919050565b610f1481610ef9565b82525050565b6000602082019050610f2f6000830184610f0b565b92915050565b60008115159050919050565b610f4a81610f35565b82525050565b600081519050919050565b600082825260208201905092915050565b60005b83811015610f8a578082015181840152602081019050610f6f565b60008484015250505050565b6000610fa182610f50565b610fab8185610f5b565b9350610fbb818560208601610f6c565b610fc481610b6f565b840191505092915050565b6000604082019050610fe46000830185610f41565b8181036020830152610ff68184610f96565b90509392505050565b600061100a82610e47565b9050919050565b61101a81610fff565b82525050565b60006020820190506110356000830184611011565b92915050565b60006020828403121561105157611050610b2a565b5b600061105f84828501610b55565b91505092915050565b600060408201905061107d6000830185610e79565b61108a6020830184610e79565b9392505050565b60006060820190506110a66000830186610d1f565b6110b36020830185610d1f565b6110c06040830184610d1f565b949350505050565b6000819050919050565b6110db816110c8565b82525050565b600067ffffffffffffffff82169050919050565b6110fe816110e1565b82525050565b600061ffff82169050919050565b61111b81611104565b82525050565b600063ffffffff82169050919050565b61113a81611121565b82525050565b600060a08201905061115560008301886110d2565b61116260208301876110f5565b61116f6040830186611112565b61117c6060830185611131565b6111896080830184611131565b9695505050505050565b6000815190506111a281610b3e565b92915050565b6000602082840312156111be576111bd610b2a565b5b60006111cc84828501611193565b91505092915050565b7f4e487b7100000000000000000000000000000000000000000000000000000000600052601160045260246000fd5b600061120f82610b34565b915061121a83610b34565b9250828203905081811115611232576112316111d5565b5b92915050565b7f4e487b7100000000000000000000000000000000000000000000000000000000600052603260045260246000fd5b7f4e487b7100000000000000000000000000000000000000000000000000000000600052601260045260246000fd5b60006112a182610b34565b91506112ac83610b34565b9250826112bc576112bb611267565b5b828206905092915050565b600081905092915050565b50565b60006112e26000836112c7565b91506112ed826112d2565b600082019050919050565b6000611303826112d5565b9150819050919050565b6000819050919050565b600061133261132d61132884610e47565b61130d565b610e47565b9050919050565b600061134482611317565b9050919050565b600061135682611339565b9050919050565b6113668161134b565b82525050565b6000602082019050611381600083018461135d565b9291505056fea264697066735822122072148b6e5c6e4e9b88508f5ef7dfb59c1e1fcb6637b71516314d9c9bb21f984764736f6c63430008120033","opcodes":"PUSH2 0x140 PUSH1 0x40 MSTORE PUSH1 0x3 PUSH1 0x0 DUP1 PUSH2 0x100 EXP DUP2 SLOAD DUP2 PUSH2 0xFFFF MUL NOT AND SWAP1 DUP4 PUSH2 0xFFFF AND MUL OR SWAP1 SSTORE POP PUSH1 0x1 PUSH1 0x0 PUSH1 0x2 PUSH2 0x100 EXP DUP2 SLOAD DUP2 PUSH4 0xFFFFFFFF MUL NOT AND SWAP1 DUP4 PUSH4 0xFFFFFFFF AND MUL OR SWAP1 SSTORE POP CALLVALUE DUP1 ISZERO PUSH3 0x51 JUMPI PUSH1 0x0 DUP1 REVERT JUMPDEST POP PUSH1 0x40 MLOAD PUSH3 0x17C5 CODESIZE SUB DUP1 PUSH3 0x17C5 DUP4 CODECOPY DUP2 DUP2 ADD PUSH1 0x40 MSTORE DUP2 ADD SWAP1 PUSH3 0x77 SWAP2 SWAP1 PUSH3 0x2DF JUMP JUMPDEST DUP5 DUP1 PUSH20 0xFFFFFFFFFFFFFFFFFFFFFFFFFFFFFFFFFFFFFFFF AND PUSH1 0x80 DUP2 PUSH20 0xFFFFFFFFFFFFFFFFFFFFFFFFFFFFFFFFFFFFFFFF AND DUP2 MSTORE POP POP POP DUP6 PUSH1 0xA0 DUP2 DUP2 MSTORE POP POP DUP5 PUSH20 0xFFFFFFFFFFFFFFFFFFFFFFFFFFFFFFFFFFFFFFFF AND PUSH2 0x120 DUP2 PUSH20 0xFFFFFFFFFFFFFFFFFFFFFFFFFFFFFFFFFFFFFFFF AND DUP2 MSTORE POP POP DUP4 PUSH1 0xC0 DUP2 DUP2 MSTORE POP POP DUP2 PUSH4 0xFFFFFFFF AND PUSH2 0x100 DUP2 PUSH4 0xFFFFFFFF AND DUP2 MSTORE POP POP DUP3 PUSH8 0xFFFFFFFFFFFFFFFF AND PUSH1 0xE0 DUP2 PUSH8 0xFFFFFFFFFFFFFFFF AND DUP2 MSTORE POP POP DUP1 PUSH1 0x4 DUP2 SWAP1 SSTORE POP PUSH1 0x0 PUSH1 0x2 DUP2 GT ISZERO PUSH3 0x141 JUMPI PUSH3 0x140 PUSH3 0x37B JUMP JUMPDEST JUMPDEST PUSH1 0x5 PUSH1 0x0 PUSH2 0x100 EXP DUP2 SLOAD DUP2 PUSH1 0xFF MUL NOT AND SWAP1 DUP4 PUSH1 0x2 DUP2 GT ISZERO PUSH3 0x168 JUMPI PUSH3 0x167 PUSH3 0x37B JUMP JUMPDEST JUMPDEST MUL OR SWAP1 SSTORE POP POP POP POP POP POP POP PUSH3 0x3AA JUMP JUMPDEST PUSH1 0x0 DUP1 REVERT JUMPDEST PUSH1 0x0 DUP2 SWAP1 POP SWAP2 SWAP1 POP JUMP JUMPDEST PUSH3 0x193 DUP2 PUSH3 0x17E JUMP JUMPDEST DUP2 EQ PUSH3 0x19F JUMPI PUSH1 0x0 DUP1 REVERT JUMPDEST POP JUMP JUMPDEST PUSH1 0x0 DUP2 MLOAD SWAP1 POP PUSH3 0x1B3 DUP2 PUSH3 0x188 JUMP JUMPDEST SWAP3 SWAP2 POP POP JUMP JUMPDEST PUSH1 0x0 PUSH20 0xFFFFFFFFFFFFFFFFFFFFFFFFFFFFFFFFFFFFFFFF DUP3 AND SWAP1 POP SWAP2 SWAP1 POP JUMP JUMPDEST PUSH1 0x0 PUSH3 0x1E6 DUP3 PUSH3 0x1B9 JUMP JUMPDEST SWAP1 POP SWAP2 SWAP1 POP JUMP JUMPDEST PUSH3 0x1F8 DUP2 PUSH3 0x1D9 JUMP JUMPDEST DUP2 EQ PUSH3 0x204 JUMPI PUSH1 0x0 DUP1 REVERT JUMPDEST POP JUMP JUMPDEST PUSH1 0x0 DUP2 MLOAD SWAP1 POP PUSH3 0x218 DUP2 PUSH3 0x1ED JUMP JUMPDEST SWAP3 SWAP2 POP POP JUMP JUMPDEST PUSH1 0x0 DUP2 SWAP1 POP SWAP2 SWAP1 POP JUMP JUMPDEST PUSH3 0x233 DUP2 PUSH3 0x21E JUMP JUMPDEST DUP2 EQ PUSH3 0x23F JUMPI PUSH1 0x0 DUP1 REVERT JUMPDEST POP JUMP JUMPDEST PUSH1 0x0 DUP2 MLOAD SWAP1 POP PUSH3 0x253 DUP2 PUSH3 0x228 JUMP JUMPDEST SWAP3 SWAP2 POP POP JUMP JUMPDEST PUSH1 0x0 PUSH8 0xFFFFFFFFFFFFFFFF DUP3 AND SWAP1 POP SWAP2 SWAP1 POP JUMP JUMPDEST PUSH3 0x278 DUP2 PUSH3 0x259 JUMP JUMPDEST DUP2 EQ PUSH3 0x284 JUMPI PUSH1 0x0 DUP1 REVERT JUMPDEST POP JUMP JUMPDEST PUSH1 0x0 DUP2 MLOAD SWAP1 POP PUSH3 0x298 DUP2 PUSH3 0x26D JUMP JUMPDEST SWAP3 SWAP2 POP POP JUMP JUMPDEST PUSH1 0x0 PUSH4 0xFFFFFFFF DUP3 AND SWAP1 POP SWAP2 SWAP1 POP JUMP JUMPDEST PUSH3 0x2B9 DUP2 PUSH3 0x29E JUMP JUMPDEST DUP2 EQ PUSH3 0x2C5 JUMPI PUSH1 0x0 DUP1 REVERT JUMPDEST POP JUMP JUMPDEST PUSH1 0x0 DUP2 MLOAD SWAP1 POP PUSH3 0x2D9 DUP2 PUSH3 0x2AE JUMP JUMPDEST SWAP3 SWAP2 POP POP JUMP JUMPDEST PUSH1 0x0 DUP1 PUSH1 0x0 DUP1 PUSH1 0x0 DUP1 PUSH1 0xC0 DUP8 DUP10 SUB SLT ISZERO PUSH3 0x2FF JUMPI PUSH3 0x2FE PUSH3 0x179 JUMP JUMPDEST JUMPDEST PUSH1 0x0 PUSH3 0x30F DUP10 DUP3 DUP11 ADD PUSH3 0x1A2 JUMP JUMPDEST SWAP7 POP POP PUSH1 0x20 PUSH3 0x322 DUP10 DUP3 DUP11 ADD PUSH3 0x207 JUMP JUMPDEST SWAP6 POP POP PUSH1 0x40 PUSH3 0x335 DUP10 DUP3 DUP11 ADD PUSH3 0x242 JUMP JUMPDEST SWAP5 POP POP PUSH1 0x60 PUSH3 0x348 DUP10 DUP3 DUP11 ADD PUSH3 0x287 JUMP JUMPDEST SWAP4 POP POP PUSH1 0x80 PUSH3 0x35B DUP10 DUP3 DUP11 ADD PUSH3 0x2C8 JUMP JUMPDEST SWAP3 POP POP PUSH1 0xA0 PUSH3 0x36E DUP10 DUP3 DUP11 ADD PUSH3 0x1A2 JUMP JUMPDEST SWAP2 POP POP SWAP3 SWAP6 POP SWAP3 SWAP6 POP SWAP3 SWAP6 JUMP JUMPDEST PUSH32 0x4E487B7100000000000000000000000000000000000000000000000000000000 PUSH1 0x0 MSTORE PUSH1 0x21 PUSH1 0x4 MSTORE PUSH1 0x24 PUSH1 0x0 REVERT JUMPDEST PUSH1 0x80 MLOAD PUSH1 0xA0 MLOAD PUSH1 0xC0 MLOAD PUSH1 0xE0 MLOAD PUSH2 0x100 MLOAD PUSH2 0x120 MLOAD PUSH2 0x13BD PUSH3 0x408 PUSH1 0x0 CODECOPY PUSH1 0x0 PUSH2 0x44D ADD MSTORE PUSH1 0x0 PUSH2 0x4DA ADD MSTORE PUSH1 0x0 PUSH2 0x4AA ADD MSTORE PUSH1 0x0 PUSH2 0x489 ADD MSTORE PUSH1 0x0 DUP2 DUP2 PUSH2 0x72C ADD MSTORE PUSH2 0x752 ADD MSTORE PUSH1 0x0 DUP2 DUP2 PUSH2 0x2F8 ADD MSTORE PUSH2 0x34C ADD MSTORE PUSH2 0x13BD PUSH1 0x0 RETURN INVALID PUSH1 0x80 PUSH1 0x40 MSTORE PUSH1 0x4 CALLDATASIZE LT PUSH2 0xC2 JUMPI PUSH1 0x0 CALLDATALOAD PUSH1 0xE0 SHR DUP1 PUSH4 0x6E04FF0D GT PUSH2 0x7F JUMPI DUP1 PUSH4 0xCA6A9EF8 GT PUSH2 0x59 JUMPI DUP1 PUSH4 0xCA6A9EF8 EQ PUSH2 0x259 JUMPI DUP1 PUSH4 0xE55AE4E8 EQ PUSH2 0x284 JUMPI DUP1 PUSH4 0xE586A4F0 EQ PUSH2 0x2C1 JUMPI DUP1 PUSH4 0xEE38ADAF EQ PUSH2 0x2EC JUMPI PUSH2 0xC2 JUMP JUMPDEST DUP1 PUSH4 0x6E04FF0D EQ PUSH2 0x1C5 JUMPI DUP1 PUSH4 0x8638B0C6 EQ PUSH2 0x203 JUMPI DUP1 PUSH4 0xBD4D025C EQ PUSH2 0x22E JUMPI PUSH2 0xC2 JUMP JUMPDEST DUP1 PUSH4 0x1FE543E3 EQ PUSH2 0xC7 JUMPI DUP1 PUSH4 0x44E43C98 EQ PUSH2 0xF0 JUMPI DUP1 PUSH4 0x4585E33B EQ PUSH2 0x11B JUMPI DUP1 PUSH4 0x473F1DDC EQ PUSH2 0x144 JUMPI DUP1 PUSH4 0x53A2C19A EQ PUSH2 0x16F JUMPI DUP1 PUSH4 0x6B68C03C EQ PUSH2 0x19A JUMPI JUMPDEST PUSH1 0x0 DUP1 REVERT JUMPDEST CALLVALUE DUP1 ISZERO PUSH2 0xD3 JUMPI PUSH1 0x0 DUP1 REVERT JUMPDEST POP PUSH2 0xEE PUSH1 0x4 DUP1 CALLDATASIZE SUB DUP2 ADD SWAP1 PUSH2 0xE9 SWAP2 SWAP1 PUSH2 0xCC3 JUMP JUMPDEST PUSH2 0x2F6 JUMP JUMPDEST STOP JUMPDEST CALLVALUE DUP1 ISZERO PUSH2 0xFC JUMPI PUSH1 0x0 DUP1 REVERT JUMPDEST POP PUSH2 0x105 PUSH2 0x3B6 JUMP JUMPDEST PUSH1 0x40 MLOAD PUSH2 0x112 SWAP2 SWAP1 PUSH2 0xD2E JUMP JUMPDEST PUSH1 0x40 MLOAD DUP1 SWAP2 SUB SWAP1 RETURN JUMPDEST CALLVALUE DUP1 ISZERO PUSH2 0x127 JUMPI PUSH1 0x0 DUP1 REVERT JUMPDEST POP PUSH2 0x142 PUSH1 0x4 DUP1 CALLDATASIZE SUB DUP2 ADD SWAP1 PUSH2 0x13D SWAP2 SWAP1 PUSH2 0xDFE JUMP JUMPDEST PUSH2 0x3C0 JUMP JUMPDEST STOP JUMPDEST CALLVALUE DUP1 ISZERO PUSH2 0x150 JUMPI PUSH1 0x0 DUP1 REVERT JUMPDEST POP PUSH2 0x159 PUSH2 0x5A3 JUMP JUMPDEST PUSH1 0x40 MLOAD PUSH2 0x166 SWAP2 SWAP1 PUSH2 0xE88 JUMP JUMPDEST PUSH1 0x40 MLOAD DUP1 SWAP2 SUB SWAP1 RETURN JUMPDEST CALLVALUE DUP1 ISZERO PUSH2 0x17B JUMPI PUSH1 0x0 DUP1 REVERT JUMPDEST POP PUSH2 0x184 PUSH2 0x5CD JUMP JUMPDEST PUSH1 0x40 MLOAD PUSH2 0x191 SWAP2 SWAP1 PUSH2 0xD2E JUMP JUMPDEST PUSH1 0x40 MLOAD DUP1 SWAP2 SUB SWAP1 RETURN JUMPDEST CALLVALUE DUP1 ISZERO PUSH2 0x1A6 JUMPI PUSH1 0x0 DUP1 REVERT JUMPDEST POP PUSH2 0x1AF PUSH2 0x5EC JUMP JUMPDEST PUSH1 0x40 MLOAD PUSH2 0x1BC SWAP2 SWAP1 PUSH2 0xF1A JUMP JUMPDEST PUSH1 0x40 MLOAD DUP1 SWAP2 SUB SWAP1 RETURN JUMPDEST CALLVALUE DUP1 ISZERO PUSH2 0x1D1 JUMPI PUSH1 0x0 DUP1 REVERT JUMPDEST POP PUSH2 0x1EC PUSH1 0x4 DUP1 CALLDATASIZE SUB DUP2 ADD SWAP1 PUSH2 0x1E7 SWAP2 SWAP1 PUSH2 0xDFE JUMP JUMPDEST PUSH2 0x603 JUMP JUMPDEST PUSH1 0x40 MLOAD PUSH2 0x1FA SWAP3 SWAP2 SWAP1 PUSH2 0xFCF JUMP JUMPDEST PUSH1 0x40 MLOAD DUP1 SWAP2 SUB SWAP1 RETURN JUMPDEST CALLVALUE DUP1 ISZERO PUSH2 0x20F JUMPI PUSH1 0x0 DUP1 REVERT JUMPDEST POP PUSH2 0x218 PUSH2 0x692 JUMP JUMPDEST PUSH1 0x40 MLOAD PUSH2 0x225 SWAP2 SWAP1 PUSH2 0x1020 JUMP JUMPDEST PUSH1 0x40 MLOAD DUP1 SWAP2 SUB SWAP1 RETURN JUMPDEST CALLVALUE DUP1 ISZERO PUSH2 0x23A JUMPI PUSH1 0x0 DUP1 REVERT JUMPDEST POP PUSH2 0x243 PUSH2 0x6B8 JUMP JUMPDEST PUSH1 0x40 MLOAD PUSH2 0x250 SWAP2 SWAP1 PUSH2 0xD2E JUMP JUMPDEST PUSH1 0x40 MLOAD DUP1 SWAP2 SUB SWAP1 RETURN JUMPDEST CALLVALUE DUP1 ISZERO PUSH2 0x265 JUMPI PUSH1 0x0 DUP1 REVERT JUMPDEST POP PUSH2 0x26E PUSH2 0x6C5 JUMP JUMPDEST PUSH1 0x40 MLOAD PUSH2 0x27B SWAP2 SWAP1 PUSH2 0xD2E JUMP JUMPDEST PUSH1 0x40 MLOAD DUP1 SWAP2 SUB SWAP1 RETURN JUMPDEST CALLVALUE DUP1 ISZERO PUSH2 0x290 JUMPI PUSH1 0x0 DUP1 REVERT JUMPDEST POP PUSH2 0x2AB PUSH1 0x4 DUP1 CALLDATASIZE SUB DUP2 ADD SWAP1 PUSH2 0x2A6 SWAP2 SWAP1 PUSH2 0x103B JUMP JUMPDEST PUSH2 0x6E0 JUMP JUMPDEST PUSH1 0x40 MLOAD PUSH2 0x2B8 SWAP2 SWAP1 PUSH2 0xE88 JUMP JUMPDEST PUSH1 0x40 MLOAD DUP1 SWAP2 SUB SWAP1 RETURN JUMPDEST CALLVALUE DUP1 ISZERO PUSH2 0x2CD JUMPI PUSH1 0x0 DUP1 REVERT JUMPDEST POP PUSH2 0x2D6 PUSH2 0x728 JUMP JUMPDEST PUSH1 0x40 MLOAD PUSH2 0x2E3 SWAP2 SWAP1 PUSH2 0xD2E JUMP JUMPDEST PUSH1 0x40 MLOAD DUP1 SWAP2 SUB SWAP1 RETURN JUMPDEST PUSH2 0x2F4 PUSH2 0x750 JUMP JUMPDEST STOP JUMPDEST PUSH32 0x0 PUSH20 0xFFFFFFFFFFFFFFFFFFFFFFFFFFFFFFFFFFFFFFFF AND CALLER PUSH20 0xFFFFFFFFFFFFFFFFFFFFFFFFFFFFFFFFFFFFFFFF AND EQ PUSH2 0x3A8 JUMPI CALLER PUSH32 0x0 PUSH1 0x40 MLOAD PUSH32 0x1CF993F400000000000000000000000000000000000000000000000000000000 DUP2 MSTORE PUSH1 0x4 ADD PUSH2 0x39F SWAP3 SWAP2 SWAP1 PUSH2 0x1068 JUMP JUMPDEST PUSH1 0x40 MLOAD DUP1 SWAP2 SUB SWAP1 REVERT JUMPDEST PUSH2 0x3B2 DUP3 DUP3 PUSH2 0x852 JUMP JUMPDEST POP POP JUMP JUMPDEST PUSH1 0x0 PUSH1 0x4 SLOAD SWAP1 POP SWAP1 JUMP JUMPDEST PUSH1 0x0 PUSH2 0x3DA PUSH1 0x40 MLOAD DUP1 PUSH1 0x20 ADD PUSH1 0x40 MSTORE DUP1 PUSH1 0x0 DUP2 MSTORE POP PUSH2 0x603 JUMP JUMPDEST POP SWAP1 POP DUP1 PUSH2 0x449 JUMPI SELFBALANCE PUSH1 0x1 DUP1 SLOAD SWAP1 POP PUSH1 0x5 PUSH1 0x0 SWAP1 SLOAD SWAP1 PUSH2 0x100 EXP SWAP1 DIV PUSH1 0xFF AND PUSH1 0x2 DUP2 GT ISZERO PUSH2 0x40B JUMPI PUSH2 0x40A PUSH2 0xEA3 JUMP JUMPDEST JUMPDEST PUSH1 0x40 MLOAD PUSH32 0x8FAA7EBB00000000000000000000000000000000000000000000000000000000 DUP2 MSTORE PUSH1 0x4 ADD PUSH2 0x440 SWAP4 SWAP3 SWAP2 SWAP1 PUSH2 0x1091 JUMP JUMPDEST PUSH1 0x40 MLOAD DUP1 SWAP2 SUB SWAP1 REVERT JUMPDEST PUSH1 0x0 PUSH32 0x0 PUSH20 0xFFFFFFFFFFFFFFFFFFFFFFFFFFFFFFFFFFFFFFFF AND PUSH4 0x5D3B1D30 PUSH32 0x0 PUSH32 0x0 PUSH1 0x0 DUP1 SLOAD SWAP1 PUSH2 0x100 EXP SWAP1 DIV PUSH2 0xFFFF AND PUSH32 0x0 PUSH1 0x0 PUSH1 0x2 SWAP1 SLOAD SWAP1 PUSH2 0x100 EXP SWAP1 DIV PUSH4 0xFFFFFFFF AND PUSH1 0x40 MLOAD DUP7 PUSH4 0xFFFFFFFF AND PUSH1 0xE0 SHL DUP2 MSTORE PUSH1 0x4 ADD PUSH2 0x52C SWAP6 SWAP5 SWAP4 SWAP3 SWAP2 SWAP1 PUSH2 0x1140 JUMP JUMPDEST PUSH1 0x20 PUSH1 0x40 MLOAD DUP1 DUP4 SUB DUP2 PUSH1 0x0 DUP8 GAS CALL ISZERO DUP1 ISZERO PUSH2 0x54B JUMPI RETURNDATASIZE PUSH1 0x0 DUP1 RETURNDATACOPY RETURNDATASIZE PUSH1 0x0 REVERT JUMPDEST POP POP POP POP PUSH1 0x40 MLOAD RETURNDATASIZE PUSH1 0x1F NOT PUSH1 0x1F DUP3 ADD AND DUP3 ADD DUP1 PUSH1 0x40 MSTORE POP DUP2 ADD SWAP1 PUSH2 0x56F SWAP2 SWAP1 PUSH2 0x11A8 JUMP JUMPDEST SWAP1 POP DUP1 PUSH32 0xED81D7C6D243AF55A11A80E2E1FF815881E816981F9A54D57713923BFD609664 PUSH1 0x40 MLOAD PUSH1 0x40 MLOAD DUP1 SWAP2 SUB SWAP1 LOG2 POP POP POP JUMP JUMPDEST PUSH1 0x0 PUSH1 0x3 PUSH1 0x0 SWAP1 SLOAD SWAP1 PUSH2 0x100 EXP SWAP1 DIV PUSH20 0xFFFFFFFFFFFFFFFFFFFFFFFFFFFFFFFFFFFFFFFF AND SWAP1 POP SWAP1 JUMP JUMPDEST PUSH1 0x0 DUP1 PUSH1 0x2 SWAP1 SLOAD SWAP1 PUSH2 0x100 EXP SWAP1 DIV PUSH4 0xFFFFFFFF AND PUSH4 0xFFFFFFFF AND SWAP1 POP SWAP1 JUMP JUMPDEST PUSH1 0x0 PUSH1 0x5 PUSH1 0x0 SWAP1 SLOAD SWAP1 PUSH2 0x100 EXP SWAP1 DIV PUSH1 0xFF AND SWAP1 POP SWAP1 JUMP JUMPDEST PUSH1 0x0 PUSH1 0x60 PUSH1 0x0 PUSH1 0x5 PUSH1 0x0 SWAP1 SLOAD SWAP1 PUSH2 0x100 EXP SWAP1 DIV PUSH1 0xFF AND PUSH1 0x2 DUP2 GT ISZERO PUSH2 0x62B JUMPI PUSH2 0x62A PUSH2 0xEA3 JUMP JUMPDEST JUMPDEST PUSH1 0x0 PUSH1 0x2 DUP2 GT ISZERO PUSH2 0x63F JUMPI PUSH2 0x63E PUSH2 0xEA3 JUMP JUMPDEST JUMPDEST EQ SWAP1 POP PUSH1 0x0 PUSH1 0x4 SLOAD PUSH1 0x2 SLOAD TIMESTAMP PUSH2 0x655 SWAP2 SWAP1 PUSH2 0x1204 JUMP JUMPDEST GT SWAP1 POP PUSH1 0x0 DUP1 PUSH1 0x1 DUP1 SLOAD SWAP1 POP GT SWAP1 POP PUSH1 0x0 DUP1 SELFBALANCE GT SWAP1 POP DUP4 DUP1 ISZERO PUSH2 0x675 JUMPI POP DUP3 JUMPDEST DUP1 ISZERO PUSH2 0x67E JUMPI POP DUP1 JUMPDEST DUP1 ISZERO PUSH2 0x687 JUMPI POP DUP2 JUMPDEST SWAP6 POP POP POP POP POP SWAP2 POP SWAP2 JUMP JUMPDEST PUSH1 0x3 PUSH1 0x0 SWAP1 SLOAD SWAP1 PUSH2 0x100 EXP SWAP1 DIV PUSH20 0xFFFFFFFFFFFFFFFFFFFFFFFFFFFFFFFFFFFFFFFF AND DUP2 JUMP JUMPDEST PUSH1 0x0 PUSH1 0x1 DUP1 SLOAD SWAP1 POP SWAP1 POP SWAP1 JUMP JUMPDEST PUSH1 0x0 DUP1 PUSH1 0x0 SWAP1 SLOAD SWAP1 PUSH2 0x100 EXP SWAP1 DIV PUSH2 0xFFFF AND PUSH2 0xFFFF AND SWAP1 POP SWAP1 JUMP JUMPDEST PUSH1 0x0 PUSH1 0x1 DUP3 DUP2 SLOAD DUP2 LT PUSH2 0x6F6 JUMPI PUSH2 0x6F5 PUSH2 0x1238 JUMP JUMPDEST JUMPDEST SWAP1 PUSH1 0x0 MSTORE PUSH1 0x20 PUSH1 0x0 KECCAK256 ADD PUSH1 0x0 SWAP1 SLOAD SWAP1 PUSH2 0x100 EXP SWAP1 DIV PUSH20 0xFFFFFFFFFFFFFFFFFFFFFFFFFFFFFFFFFFFFFFFF AND SWAP1 POP SWAP2 SWAP1 POP JUMP JUMPDEST PUSH1 0x0 PUSH32 0x0 SWAP1 POP SWAP1 JUMP JUMPDEST PUSH32 0x0 CALLVALUE LT ISZERO PUSH2 0x7AA JUMPI PUSH1 0x40 MLOAD PUSH32 0x4E8ED22600000000000000000000000000000000000000000000000000000000 DUP2 MSTORE PUSH1 0x4 ADD PUSH1 0x40 MLOAD DUP1 SWAP2 SUB SWAP1 REVERT JUMPDEST PUSH1 0x1 CALLER SWAP1 DUP1 PUSH1 0x1 DUP2 SLOAD ADD DUP1 DUP3 SSTORE DUP1 SWAP2 POP POP PUSH1 0x1 SWAP1 SUB SWAP1 PUSH1 0x0 MSTORE PUSH1 0x20 PUSH1 0x0 KECCAK256 ADD PUSH1 0x0 SWAP1 SWAP2 SWAP1 SWAP2 SWAP1 SWAP2 PUSH2 0x100 EXP DUP2 SLOAD DUP2 PUSH20 0xFFFFFFFFFFFFFFFFFFFFFFFFFFFFFFFFFFFFFFFF MUL NOT AND SWAP1 DUP4 PUSH20 0xFFFFFFFFFFFFFFFFFFFFFFFFFFFFFFFFFFFFFFFF AND MUL OR SWAP1 SSTORE POP CALLER PUSH20 0xFFFFFFFFFFFFFFFFFFFFFFFFFFFFFFFFFFFFFFFF AND PUSH32 0x8D2254BBACAE52DFC22329894F8EA57BC566F2EFC4F77401F2EE951982387D35 PUSH1 0x40 MLOAD PUSH1 0x40 MLOAD DUP1 SWAP2 SUB SWAP1 LOG2 JUMP JUMPDEST PUSH1 0x0 PUSH1 0x1 DUP1 SLOAD SWAP1 POP DUP3 PUSH1 0x0 DUP2 MLOAD DUP2 LT PUSH2 0x86E JUMPI PUSH2 0x86D PUSH2 0x1238 JUMP JUMPDEST JUMPDEST PUSH1 0x20 MUL PUSH1 0x20 ADD ADD MLOAD PUSH2 0x880 SWAP2 SWAP1 PUSH2 0x1296 JUMP JUMPDEST SWAP1 POP PUSH1 0x0 PUSH1 0x1 DUP3 DUP2 SLOAD DUP2 LT PUSH2 0x898 JUMPI PUSH2 0x897 PUSH2 0x1238 JUMP JUMPDEST JUMPDEST SWAP1 PUSH1 0x0 MSTORE PUSH1 0x20 PUSH1 0x0 KECCAK256 ADD PUSH1 0x0 SWAP1 SLOAD SWAP1 PUSH2 0x100 EXP SWAP1 DIV PUSH20 0xFFFFFFFFFFFFFFFFFFFFFFFFFFFFFFFFFFFFFFFF AND SWAP1 POP DUP1 PUSH1 0x3 PUSH1 0x0 PUSH2 0x100 EXP DUP2 SLOAD DUP2 PUSH20 0xFFFFFFFFFFFFFFFFFFFFFFFFFFFFFFFFFFFFFFFF MUL NOT AND SWAP1 DUP4 PUSH20 0xFFFFFFFFFFFFFFFFFFFFFFFFFFFFFFFFFFFFFFFF AND MUL OR SWAP1 SSTORE POP PUSH1 0x0 PUSH1 0x5 PUSH1 0x0 PUSH2 0x100 EXP DUP2 SLOAD DUP2 PUSH1 0xFF MUL NOT AND SWAP1 DUP4 PUSH1 0x2 DUP2 GT ISZERO PUSH2 0x92C JUMPI PUSH2 0x92B PUSH2 0xEA3 JUMP JUMPDEST JUMPDEST MUL OR SWAP1 SSTORE POP PUSH1 0x0 PUSH8 0xFFFFFFFFFFFFFFFF DUP2 GT ISZERO PUSH2 0x94C JUMPI PUSH2 0x94B PUSH2 0xB80 JUMP JUMPDEST JUMPDEST PUSH1 0x40 MLOAD SWAP1 DUP1 DUP3 MSTORE DUP1 PUSH1 0x20 MUL PUSH1 0x20 ADD DUP3 ADD PUSH1 0x40 MSTORE DUP1 ISZERO PUSH2 0x97A JUMPI DUP2 PUSH1 0x20 ADD PUSH1 0x20 DUP3 MUL DUP1 CALLDATASIZE DUP4 CALLDATACOPY DUP1 DUP3 ADD SWAP2 POP POP SWAP1 POP JUMPDEST POP PUSH1 0x1 SWAP1 DUP1 MLOAD SWAP1 PUSH1 0x20 ADD SWAP1 PUSH2 0x990 SWAP3 SWAP2 SWAP1 PUSH2 0xA79 JUMP JUMPDEST POP TIMESTAMP PUSH1 0x4 DUP2 SWAP1 SSTORE POP PUSH1 0x0 DUP2 PUSH20 0xFFFFFFFFFFFFFFFFFFFFFFFFFFFFFFFFFFFFFFFF AND SELFBALANCE PUSH1 0x40 MLOAD PUSH2 0x9BE SWAP1 PUSH2 0x12F8 JUMP JUMPDEST PUSH1 0x0 PUSH1 0x40 MLOAD DUP1 DUP4 SUB DUP2 DUP6 DUP8 GAS CALL SWAP3 POP POP POP RETURNDATASIZE DUP1 PUSH1 0x0 DUP2 EQ PUSH2 0x9FB JUMPI PUSH1 0x40 MLOAD SWAP2 POP PUSH1 0x1F NOT PUSH1 0x3F RETURNDATASIZE ADD AND DUP3 ADD PUSH1 0x40 MSTORE RETURNDATASIZE DUP3 MSTORE RETURNDATASIZE PUSH1 0x0 PUSH1 0x20 DUP5 ADD RETURNDATACOPY PUSH2 0xA00 JUMP JUMPDEST PUSH1 0x60 SWAP2 POP JUMPDEST POP POP SWAP1 POP DUP1 PUSH2 0xA3B JUMPI PUSH1 0x40 MLOAD PUSH32 0xC902A01500000000000000000000000000000000000000000000000000000000 DUP2 MSTORE PUSH1 0x4 ADD PUSH1 0x40 MLOAD DUP1 SWAP2 SUB SWAP1 REVERT JUMPDEST PUSH32 0x5B690EC4A06FE979403046EAEEA5B3CE38524683C3001F662C8B5A829632F7DF DUP3 PUSH1 0x40 MLOAD PUSH2 0xA6A SWAP2 SWAP1 PUSH2 0x136C JUMP JUMPDEST PUSH1 0x40 MLOAD DUP1 SWAP2 SUB SWAP1 LOG1 POP POP POP POP POP JUMP JUMPDEST DUP3 DUP1 SLOAD DUP3 DUP3 SSTORE SWAP1 PUSH1 0x0 MSTORE PUSH1 0x20 PUSH1 0x0 KECCAK256 SWAP1 DUP2 ADD SWAP3 DUP3 ISZERO PUSH2 0xAF2 JUMPI SWAP2 PUSH1 0x20 MUL DUP3 ADD JUMPDEST DUP3 DUP2 GT ISZERO PUSH2 0xAF1 JUMPI DUP3 MLOAD DUP3 PUSH1 0x0 PUSH2 0x100 EXP DUP2 SLOAD DUP2 PUSH20 0xFFFFFFFFFFFFFFFFFFFFFFFFFFFFFFFFFFFFFFFF MUL NOT AND SWAP1 DUP4 PUSH20 0xFFFFFFFFFFFFFFFFFFFFFFFFFFFFFFFFFFFFFFFF AND MUL OR SWAP1 SSTORE POP SWAP2 PUSH1 0x20 ADD SWAP2 SWAP1 PUSH1 0x1 ADD SWAP1 PUSH2 0xA99 JUMP JUMPDEST JUMPDEST POP SWAP1 POP PUSH2 0xAFF SWAP2 SWAP1 PUSH2 0xB03 JUMP JUMPDEST POP SWAP1 JUMP JUMPDEST JUMPDEST DUP1 DUP3 GT ISZERO PUSH2 0xB1C JUMPI PUSH1 0x0 DUP2 PUSH1 0x0 SWAP1 SSTORE POP PUSH1 0x1 ADD PUSH2 0xB04 JUMP JUMPDEST POP SWAP1 JUMP JUMPDEST PUSH1 0x0 PUSH1 0x40 MLOAD SWAP1 POP SWAP1 JUMP JUMPDEST PUSH1 0x0 DUP1 REVERT JUMPDEST PUSH1 0x0 DUP1 REVERT JUMPDEST PUSH1 0x0 DUP2 SWAP1 POP SWAP2 SWAP1 POP JUMP JUMPDEST PUSH2 0xB47 DUP2 PUSH2 0xB34 JUMP JUMPDEST DUP2 EQ PUSH2 0xB52 JUMPI PUSH1 0x0 DUP1 REVERT JUMPDEST POP JUMP JUMPDEST PUSH1 0x0 DUP2 CALLDATALOAD SWAP1 POP PUSH2 0xB64 DUP2 PUSH2 0xB3E JUMP JUMPDEST SWAP3 SWAP2 POP POP JUMP JUMPDEST PUSH1 0x0 DUP1 REVERT JUMPDEST PUSH1 0x0 PUSH1 0x1F NOT PUSH1 0x1F DUP4 ADD AND SWAP1 POP SWAP2 SWAP1 POP JUMP JUMPDEST PUSH32 0x4E487B7100000000000000000000000000000000000000000000000000000000 PUSH1 0x0 MSTORE PUSH1 0x41 PUSH1 0x4 MSTORE PUSH1 0x24 PUSH1 0x0 REVERT JUMPDEST PUSH2 0xBB8 DUP3 PUSH2 0xB6F JUMP JUMPDEST DUP2 ADD DUP2 DUP2 LT PUSH8 0xFFFFFFFFFFFFFFFF DUP3 GT OR ISZERO PUSH2 0xBD7 JUMPI PUSH2 0xBD6 PUSH2 0xB80 JUMP JUMPDEST JUMPDEST DUP1 PUSH1 0x40 MSTORE POP POP POP JUMP JUMPDEST PUSH1 0x0 PUSH2 0xBEA PUSH2 0xB20 JUMP JUMPDEST SWAP1 POP PUSH2 0xBF6 DUP3 DUP3 PUSH2 0xBAF JUMP JUMPDEST SWAP2 SWAP1 POP JUMP JUMPDEST PUSH1 0x0 PUSH8 0xFFFFFFFFFFFFFFFF DUP3 GT ISZERO PUSH2 0xC16 JUMPI PUSH2 0xC15 PUSH2 0xB80 JUMP JUMPDEST JUMPDEST PUSH1 0x20 DUP3 MUL SWAP1 POP PUSH1 0x20 DUP2 ADD SWAP1 POP SWAP2 SWAP1 POP JUMP JUMPDEST PUSH1 0x0 DUP1 REVERT JUMPDEST PUSH1 0x0 PUSH2 0xC3F PUSH2 0xC3A DUP5 PUSH2 0xBFB JUMP JUMPDEST PUSH2 0xBE0 JUMP JUMPDEST SWAP1 POP DUP1 DUP4 DUP3 MSTORE PUSH1 0x20 DUP3 ADD SWAP1 POP PUSH1 0x20 DUP5 MUL DUP4 ADD DUP6 DUP2 GT ISZERO PUSH2 0xC62 JUMPI PUSH2 0xC61 PUSH2 0xC27 JUMP JUMPDEST JUMPDEST DUP4 JUMPDEST DUP2 DUP2 LT ISZERO PUSH2 0xC8B JUMPI DUP1 PUSH2 0xC77 DUP9 DUP3 PUSH2 0xB55 JUMP JUMPDEST DUP5 MSTORE PUSH1 0x20 DUP5 ADD SWAP4 POP POP PUSH1 0x20 DUP2 ADD SWAP1 POP PUSH2 0xC64 JUMP JUMPDEST POP POP POP SWAP4 SWAP3 POP POP POP JUMP JUMPDEST PUSH1 0x0 DUP3 PUSH1 0x1F DUP4 ADD SLT PUSH2 0xCAA JUMPI PUSH2 0xCA9 PUSH2 0xB6A JUMP JUMPDEST JUMPDEST DUP2 CALLDATALOAD PUSH2 0xCBA DUP5 DUP3 PUSH1 0x20 DUP7 ADD PUSH2 0xC2C JUMP JUMPDEST SWAP2 POP POP SWAP3 SWAP2 POP POP JUMP JUMPDEST PUSH1 0x0 DUP1 PUSH1 0x40 DUP4 DUP6 SUB SLT ISZERO PUSH2 0xCDA JUMPI PUSH2 0xCD9 PUSH2 0xB2A JUMP JUMPDEST JUMPDEST PUSH1 0x0 PUSH2 0xCE8 DUP6 DUP3 DUP7 ADD PUSH2 0xB55 JUMP JUMPDEST SWAP3 POP POP PUSH1 0x20 DUP4 ADD CALLDATALOAD PUSH8 0xFFFFFFFFFFFFFFFF DUP2 GT ISZERO PUSH2 0xD09 JUMPI PUSH2 0xD08 PUSH2 0xB2F JUMP JUMPDEST JUMPDEST PUSH2 0xD15 DUP6 DUP3 DUP7 ADD PUSH2 0xC95 JUMP JUMPDEST SWAP2 POP POP SWAP3 POP SWAP3 SWAP1 POP JUMP JUMPDEST PUSH2 0xD28 DUP2 PUSH2 0xB34 JUMP JUMPDEST DUP3 MSTORE POP POP JUMP JUMPDEST PUSH1 0x0 PUSH1 0x20 DUP3 ADD SWAP1 POP PUSH2 0xD43 PUSH1 0x0 DUP4 ADD DUP5 PUSH2 0xD1F JUMP JUMPDEST SWAP3 SWAP2 POP POP JUMP JUMPDEST PUSH1 0x0 DUP1 REVERT JUMPDEST PUSH1 0x0 PUSH8 0xFFFFFFFFFFFFFFFF DUP3 GT ISZERO PUSH2 0xD69 JUMPI PUSH2 0xD68 PUSH2 0xB80 JUMP JUMPDEST JUMPDEST PUSH2 0xD72 DUP3 PUSH2 0xB6F JUMP JUMPDEST SWAP1 POP PUSH1 0x20 DUP2 ADD SWAP1 POP SWAP2 SWAP1 POP JUMP JUMPDEST DUP3 DUP2 DUP4 CALLDATACOPY PUSH1 0x0 DUP4 DUP4 ADD MSTORE POP POP POP JUMP JUMPDEST PUSH1 0x0 PUSH2 0xDA1 PUSH2 0xD9C DUP5 PUSH2 0xD4E JUMP JUMPDEST PUSH2 0xBE0 JUMP JUMPDEST SWAP1 POP DUP3 DUP2 MSTORE PUSH1 0x20 DUP2 ADD DUP5 DUP5 DUP5 ADD GT ISZERO PUSH2 0xDBD JUMPI PUSH2 0xDBC PUSH2 0xD49 JUMP JUMPDEST JUMPDEST PUSH2 0xDC8 DUP5 DUP3 DUP6 PUSH2 0xD7F JUMP JUMPDEST POP SWAP4 SWAP3 POP POP POP JUMP JUMPDEST PUSH1 0x0 DUP3 PUSH1 0x1F DUP4 ADD SLT PUSH2 0xDE5 JUMPI PUSH2 0xDE4 PUSH2 0xB6A JUMP JUMPDEST JUMPDEST DUP2 CALLDATALOAD PUSH2 0xDF5 DUP5 DUP3 PUSH1 0x20 DUP7 ADD PUSH2 0xD8E JUMP JUMPDEST SWAP2 POP POP SWAP3 SWAP2 POP POP JUMP JUMPDEST PUSH1 0x0 PUSH1 0x20 DUP3 DUP5 SUB SLT ISZERO PUSH2 0xE14 JUMPI PUSH2 0xE13 PUSH2 0xB2A JUMP JUMPDEST JUMPDEST PUSH1 0x0 DUP3 ADD CALLDATALOAD PUSH8 0xFFFFFFFFFFFFFFFF DUP2 GT ISZERO PUSH2 0xE32 JUMPI PUSH2 0xE31 PUSH2 0xB2F JUMP JUMPDEST JUMPDEST PUSH2 0xE3E DUP5 DUP3 DUP6 ADD PUSH2 0xDD0 JUMP JUMPDEST SWAP2 POP POP SWAP3 SWAP2 POP POP JUMP JUMPDEST PUSH1 0x0 PUSH20 0xFFFFFFFFFFFFFFFFFFFFFFFFFFFFFFFFFFFFFFFF DUP3 AND SWAP1 POP SWAP2 SWAP1 POP JUMP JUMPDEST PUSH1 0x0 PUSH2 0xE72 DUP3 PUSH2 0xE47 JUMP JUMPDEST SWAP1 POP SWAP2 SWAP1 POP JUMP JUMPDEST PUSH2 0xE82 DUP2 PUSH2 0xE67 JUMP JUMPDEST DUP3 MSTORE POP POP JUMP JUMPDEST PUSH1 0x0 PUSH1 0x20 DUP3 ADD SWAP1 POP PUSH2 0xE9D PUSH1 0x0 DUP4 ADD DUP5 PUSH2 0xE79 JUMP JUMPDEST SWAP3 SWAP2 POP POP JUMP JUMPDEST PUSH32 0x4E487B7100000000000000000000000000000000000000000000000000000000 PUSH1 0x0 MSTORE PUSH1 0x21 PUSH1 0x4 MSTORE PUSH1 0x24 PUSH1 0x0 REVERT JUMPDEST PUSH1 0x3 DUP2 LT PUSH2 0xEE3 JUMPI PUSH2 0xEE2 PUSH2 0xEA3 JUMP JUMPDEST JUMPDEST POP JUMP JUMPDEST PUSH1 0x0 DUP2 SWAP1 POP PUSH2 0xEF4 DUP3 PUSH2 0xED2 JUMP JUMPDEST SWAP2 SWAP1 POP JUMP JUMPDEST PUSH1 0x0 PUSH2 0xF04 DUP3 PUSH2 0xEE6 JUMP JUMPDEST SWAP1 POP SWAP2 SWAP1 POP JUMP JUMPDEST PUSH2 0xF14 DUP2 PUSH2 0xEF9 JUMP JUMPDEST DUP3 MSTORE POP POP JUMP JUMPDEST PUSH1 0x0 PUSH1 0x20 DUP3 ADD SWAP1 POP PUSH2 0xF2F PUSH1 0x0 DUP4 ADD DUP5 PUSH2 0xF0B JUMP JUMPDEST SWAP3 SWAP2 POP POP JUMP JUMPDEST PUSH1 0x0 DUP2 ISZERO ISZERO SWAP1 POP SWAP2 SWAP1 POP JUMP JUMPDEST PUSH2 0xF4A DUP2 PUSH2 0xF35 JUMP JUMPDEST DUP3 MSTORE POP POP JUMP JUMPDEST PUSH1 0x0 DUP2 MLOAD SWAP1 POP SWAP2 SWAP1 POP JUMP JUMPDEST PUSH1 0x0 DUP3 DUP3 MSTORE PUSH1 0x20 DUP3 ADD SWAP1 POP SWAP3 SWAP2 POP POP JUMP JUMPDEST PUSH1 0x0 JUMPDEST DUP4 DUP2 LT ISZERO PUSH2 0xF8A JUMPI DUP1 DUP3 ADD MLOAD DUP2 DUP5 ADD MSTORE PUSH1 0x20 DUP2 ADD SWAP1 POP PUSH2 0xF6F JUMP JUMPDEST PUSH1 0x0 DUP5 DUP5 ADD MSTORE POP POP POP POP JUMP JUMPDEST PUSH1 0x0 PUSH2 0xFA1 DUP3 PUSH2 0xF50 JUMP JUMPDEST PUSH2 0xFAB DUP2 DUP6 PUSH2 0xF5B JUMP JUMPDEST SWAP4 POP PUSH2 0xFBB DUP2 DUP6 PUSH1 0x20 DUP7 ADD PUSH2 0xF6C JUMP JUMPDEST PUSH2 0xFC4 DUP2 PUSH2 0xB6F JUMP JUMPDEST DUP5 ADD SWAP2 POP POP SWAP3 SWAP2 POP POP JUMP JUMPDEST PUSH1 0x0 PUSH1 0x40 DUP3 ADD SWAP1 POP PUSH2 0xFE4 PUSH1 0x0 DUP4 ADD DUP6 PUSH2 0xF41 JUMP JUMPDEST DUP2 DUP2 SUB PUSH1 0x20 DUP4 ADD MSTORE PUSH2 0xFF6 DUP2 DUP5 PUSH2 0xF96 JUMP JUMPDEST SWAP1 POP SWAP4 SWAP3 POP POP POP JUMP JUMPDEST PUSH1 0x0 PUSH2 0x100A DUP3 PUSH2 0xE47 JUMP JUMPDEST SWAP1 POP SWAP2 SWAP1 POP JUMP JUMPDEST PUSH2 0x101A DUP2 PUSH2 0xFFF JUMP JUMPDEST DUP3 MSTORE POP POP JUMP JUMPDEST PUSH1 0x0 PUSH1 0x20 DUP3 ADD SWAP1 POP PUSH2 0x1035 PUSH1 0x0 DUP4 ADD DUP5 PUSH2 0x1011 JUMP JUMPDEST SWAP3 SWAP2 POP POP JUMP JUMPDEST PUSH1 0x0 PUSH1 0x20 DUP3 DUP5 SUB SLT ISZERO PUSH2 0x1051 JUMPI PUSH2 0x1050 PUSH2 0xB2A JUMP JUMPDEST JUMPDEST PUSH1 0x0 PUSH2 0x105F DUP5 DUP3 DUP6 ADD PUSH2 0xB55 JUMP JUMPDEST SWAP2 POP POP SWAP3 SWAP2 POP POP JUMP JUMPDEST PUSH1 0x0 PUSH1 0x40 DUP3 ADD SWAP1 POP PUSH2 0x107D PUSH1 0x0 DUP4 ADD DUP6 PUSH2 0xE79 JUMP JUMPDEST PUSH2 0x108A PUSH1 0x20 DUP4 ADD DUP5 PUSH2 0xE79 JUMP JUMPDEST SWAP4 SWAP3 POP POP POP JUMP JUMPDEST PUSH1 0x0 PUSH1 0x60 DUP3 ADD SWAP1 POP PUSH2 0x10A6 PUSH1 0x0 DUP4 ADD DUP7 PUSH2 0xD1F JUMP JUMPDEST PUSH2 0x10B3 PUSH1 0x20 DUP4 ADD DUP6 PUSH2 0xD1F JUMP JUMPDEST PUSH2 0x10C0 PUSH1 0x40 DUP4 ADD DUP5 PUSH2 0xD1F JUMP JUMPDEST SWAP5 SWAP4 POP POP POP POP JUMP JUMPDEST PUSH1 0x0 DUP2 SWAP1 POP SWAP2 SWAP1 POP JUMP JUMPDEST PUSH2 0x10DB DUP2 PUSH2 0x10C8 JUMP JUMPDEST DUP3 MSTORE POP POP JUMP JUMPDEST PUSH1 0x0 PUSH8 0xFFFFFFFFFFFFFFFF DUP3 AND SWAP1 POP SWAP2 SWAP1 POP JUMP JUMPDEST PUSH2 0x10FE DUP2 PUSH2 0x10E1 JUMP JUMPDEST DUP3 MSTORE POP POP JUMP JUMPDEST PUSH1 0x0 PUSH2 0xFFFF DUP3 AND SWAP1 POP SWAP2 SWAP1 POP JUMP JUMPDEST PUSH2 0x111B DUP2 PUSH2 0x1104 JUMP JUMPDEST DUP3 MSTORE POP POP JUMP JUMPDEST PUSH1 0x0 PUSH4 0xFFFFFFFF DUP3 AND SWAP1 POP SWAP2 SWAP1 POP JUMP JUMPDEST PUSH2 0x113A DUP2 PUSH2 0x1121 JUMP JUMPDEST DUP3 MSTORE POP POP JUMP JUMPDEST PUSH1 0x0 PUSH1 0xA0 DUP3 ADD SWAP1 POP PUSH2 0x1155 PUSH1 0x0 DUP4 ADD DUP9 PUSH2 0x10D2 JUMP JUMPDEST PUSH2 0x1162 PUSH1 0x20 DUP4 ADD DUP8 PUSH2 0x10F5 JUMP JUMPDEST PUSH2 0x116F PUSH1 0x40 DUP4 ADD DUP7 PUSH2 0x1112 JUMP JUMPDEST PUSH2 0x117C PUSH1 0x60 DUP4 ADD DUP6 PUSH2 0x1131 JUMP JUMPDEST PUSH2 0x1189 PUSH1 0x80 DUP4 ADD DUP5 PUSH2 0x1131 JUMP JUMPDEST SWAP7 SWAP6 POP POP POP POP POP POP JUMP JUMPDEST PUSH1 0x0 DUP2 MLOAD SWAP1 POP PUSH2 0x11A2 DUP2 PUSH2 0xB3E JUMP JUMPDEST SWAP3 SWAP2 POP POP JUMP JUMPDEST PUSH1 0x0 PUSH1 0x20 DUP3 DUP5 SUB SLT ISZERO PUSH2 0x11BE JUMPI PUSH2 0x11BD PUSH2 0xB2A JUMP JUMPDEST JUMPDEST PUSH1 0x0 PUSH2 0x11CC DUP5 DUP3 DUP6 ADD PUSH2 0x1193 JUMP JUMPDEST SWAP2 POP POP SWAP3 SWAP2 POP POP JUMP JUMPDEST PUSH32 0x4E487B7100000000000000000000000000000000000000000000000000000000 PUSH1 0x0 MSTORE PUSH1 0x11 PUSH1 0x4 MSTORE PUSH1 0x24 PUSH1 0x0 REVERT JUMPDEST PUSH1 0x0 PUSH2 0x120F DUP3 PUSH2 0xB34 JUMP JUMPDEST SWAP2 POP PUSH2 0x121A DUP4 PUSH2 0xB34 JUMP JUMPDEST SWAP3 POP DUP3 DUP3 SUB SWAP1 POP DUP2 DUP2 GT ISZERO PUSH2 0x1232 JUMPI PUSH2 0x1231 PUSH2 0x11D5 JUMP JUMPDEST JUMPDEST SWAP3 SWAP2 POP POP JUMP JUMPDEST PUSH32 0x4E487B7100000000000000000000000000000000000000000000000000000000 PUSH1 0x0 MSTORE PUSH1 0x32 PUSH1 0x4 MSTORE PUSH1 0x24 PUSH1 0x0 REVERT JUMPDEST PUSH32 0x4E487B7100000000000000000000000000000000000000000000000000000000 PUSH1 0x0 MSTORE PUSH1 0x12 PUSH1 0x4 MSTORE PUSH1 0x24 PUSH1 0x0 REVERT JUMPDEST PUSH1 0x0 PUSH2 0x12A1 DUP3 PUSH2 0xB34 JUMP JUMPDEST SWAP2 POP PUSH2 0x12AC DUP4 PUSH2 0xB34 JUMP JUMPDEST SWAP3 POP DUP3 PUSH2 0x12BC JUMPI PUSH2 0x12BB PUSH2 0x1267 JUMP JUMPDEST JUMPDEST DUP3 DUP3 MOD SWAP1 POP SWAP3 SWAP2 POP POP JUMP JUMPDEST PUSH1 0x0 DUP2 SWAP1 POP SWAP3 SWAP2 POP POP JUMP JUMPDEST POP JUMP JUMPDEST PUSH1 0x0 PUSH2 0x12E2 PUSH1 0x0 DUP4 PUSH2 0x12C7 JUMP JUMPDEST SWAP2 POP PUSH2 0x12ED DUP3 PUSH2 0x12D2 JUMP JUMPDEST PUSH1 0x0 DUP3 ADD SWAP1 POP SWAP2 SWAP1 POP JUMP JUMPDEST PUSH1 0x0 PUSH2 0x1303 DUP3 PUSH2 0x12D5 JUMP JUMPDEST SWAP2 POP DUP2 SWAP1 POP SWAP2 SWAP1 POP JUMP JUMPDEST PUSH1 0x0 DUP2 SWAP1 POP SWAP2 SWAP1 POP JUMP JUMPDEST PUSH1 0x0 PUSH2 0x1332 PUSH2 0x132D PUSH2 0x1328 DUP5 PUSH2 0xE47 JUMP JUMPDEST PUSH2 0x130D JUMP JUMPDEST PUSH2 0xE47 JUMP JUMPDEST SWAP1 POP SWAP2 SWAP1 POP JUMP JUMPDEST PUSH1 0x0 PUSH2 0x1344 DUP3 PUSH2 0x1317 JUMP JUMPDEST SWAP1 POP SWAP2 SWAP1 POP JUMP JUMPDEST PUSH1 0x0 PUSH2 0x1356 DUP3 PUSH2 0x1339 JUMP JUMPDEST SWAP1 POP SWAP2 SWAP1 POP JUMP JUMPDEST PUSH2 0x1366 DUP2 PUSH2 0x134B JUMP JUMPDEST DUP3 MSTORE POP POP JUMP JUMPDEST PUSH1 0x0 PUSH1 0x20 DUP3 ADD SWAP1 POP PUSH2 0x1381 PUSH1 0x0 DUP4 ADD DUP5 PUSH2 0x135D JUMP JUMPDEST SWAP3 SWAP2 POP POP JUMP INVALID LOG2 PUSH5 0x6970667358 0x22 SLT KECCAK256 PUSH19 0x148B6E5C6E4E9B88508F5EF7DFB59C1E1FCB66 CALLDATACOPY 0xB7 ISZERO AND BALANCE 0x4D SWAP13 SWAP12 0xB2 0x1F SWAP9 SELFBALANCE PUSH5 0x736F6C6343 STOP ADDMOD SLT STOP CALLER "},"gasEstimates":{"creation":{"codeDepositCost":"1010600","executionCost":"infinite","totalCost":"infinite"},"external":{"checkUpkeep(bytes)":"infinite","getCurrentInterval()":"2460","getEntered()":"infinite","getEntryFee()":"infinite","getLotteryState()":"2679","getNumWords()":"2618","getNumberOfPlayer()":"2512","getPlayer(uint256)":"5011","getRecentWinner()":"2589","getRequestConfirmation()":"2501","performUpkeep(bytes)":"infinite","rawFulfillRandomWords(uint256,uint256[])":"infinite","s_recentWinner()":"2559"},"internal":{"fulfillRandomWords(uint256,uint256[] memory)":"infinite"}},"methodIdentifiers":{"checkUpkeep(bytes)":"6e04ff0d","getCurrentInterval()":"44e43c98","getEntered()":"ee38adaf","getEntryFee()":"e586a4f0","getLotteryState()":"6b68c03c","getNumWords()":"53a2c19a","getNumberOfPlayer()":"bd4d025c","getPlayer(uint256)":"e55ae4e8","getRecentWinner()":"473f1ddc","getRequestConfirmation()":"ca6a9ef8","performUpkeep(bytes)":"4585e33b","rawFulfillRandomWords(uint256,uint256[])":"1fe543e3","s_recentWinner()":"8638b0c6"}},"storageLayout":{"storage":[{"astId":1482,"contract":"contracts/Lottery.sol:Lottery","label":"requestConfirmations","offset":0,"slot":"0","type":"t_uint16"},{"astId":1487,"contract":"contracts/Lottery.sol:Lottery","label":"NUM_Words","offset":2,"slot":"0","type":"t_uint32"},{"astId":1490,"contract":"contracts/Lottery.sol:Lottery","label":"players","offset":0,"slot":"1","type":"t_array(t_address_payable)dyn_storage"},{"astId":1495,"contract":"contracts/Lottery.sol:Lottery","label":"lastTimeStamp","offset":0,"slot":"2","type":"t_uint256"},{"astId":1497,"contract":"contracts/Lottery.sol:Lottery","label":"s_recentWinner","offset":0,"slot":"3","type":"t_address_payable"},{"astId":1499,"contract":"contracts/Lottery.sol:Lottery","label":"s_setInterval","offset":0,"slot":"4","type":"t_uint256"},{"astId":1506,"contract":"contracts/Lottery.sol:Lottery","label":"stateLottery","offset":0,"slot":"5","type":"t_enum(LotteryState)1503"}],"types":{"t_address_payable":{"encoding":"inplace","label":"address payable","numberOfBytes":"20"},"t_array(t_address_payable)dyn_storage":{"base":"t_address_payable","encoding":"dynamic_array","label":"address payable[]","numberOfBytes":"32"},"t_enum(LotteryState)1503":{"encoding":"inplace","label":"enum Lottery.LotteryState","numberOfBytes":"1"},"t_uint16":{"encoding":"inplace","label":"uint16","numberOfBytes":"2"},"t_uint256":{"encoding":"inplace","label":"uint256","numberOfBytes":"32"},"t_uint32":{"encoding":"inplace","label":"uint32","numberOfBytes":"4"}}},"userdoc":{"kind":"user","methods":{},"version":1}}}}